{
  "contractName": "FlightSuretyData",
  "abi": [
    {
      "inputs": [],
      "payable": false,
      "stateMutability": "nonpayable",
      "type": "constructor"
    },
    {
      "payable": true,
      "stateMutability": "payable",
      "type": "fallback"
    },
    {
      "constant": true,
      "inputs": [],
      "name": "airlinesCount",
      "outputs": [
        {
          "internalType": "uint256",
          "name": "",
          "type": "uint256"
        }
      ],
      "payable": false,
      "stateMutability": "view",
      "type": "function"
    },
    {
      "constant": true,
      "inputs": [],
      "name": "insurance_limit",
      "outputs": [
        {
          "internalType": "uint256",
          "name": "",
          "type": "uint256"
        }
      ],
      "payable": false,
      "stateMutability": "view",
      "type": "function"
    },
    {
      "constant": true,
      "inputs": [],
      "name": "min_funds",
      "outputs": [
        {
          "internalType": "uint256",
          "name": "",
          "type": "uint256"
        }
      ],
      "payable": false,
      "stateMutability": "view",
      "type": "function"
    },
    {
      "constant": true,
      "inputs": [
        {
          "internalType": "uint256",
          "name": "",
          "type": "uint256"
        }
      ],
      "name": "passengerAddresses",
      "outputs": [
        {
          "internalType": "address",
          "name": "",
          "type": "address"
        }
      ],
      "payable": false,
      "stateMutability": "view",
      "type": "function"
    },
    {
      "constant": true,
      "inputs": [],
      "name": "isOperational",
      "outputs": [
        {
          "internalType": "bool",
          "name": "",
          "type": "bool"
        }
      ],
      "payable": false,
      "stateMutability": "view",
      "type": "function"
    },
    {
      "constant": false,
      "inputs": [
        {
          "internalType": "address",
          "name": "contractAddress",
          "type": "address"
        }
      ],
      "name": "authorizeCaller",
      "outputs": [],
      "payable": false,
      "stateMutability": "nonpayable",
      "type": "function"
    },
    {
      "constant": true,
      "inputs": [
        {
          "internalType": "address",
          "name": "contractAddress",
          "type": "address"
        }
      ],
      "name": "isAuthorized",
      "outputs": [
        {
          "internalType": "bool",
          "name": "",
          "type": "bool"
        }
      ],
      "payable": false,
      "stateMutability": "view",
      "type": "function"
    },
    {
      "constant": false,
      "inputs": [
        {
          "internalType": "address",
          "name": "contractAddress",
          "type": "address"
        }
      ],
      "name": "deauthorizeCaller",
      "outputs": [],
      "payable": false,
      "stateMutability": "nonpayable",
      "type": "function"
    },
    {
      "constant": false,
      "inputs": [
        {
          "internalType": "bool",
          "name": "mode",
          "type": "bool"
        }
      ],
      "name": "setOperatingStatus",
      "outputs": [],
      "payable": false,
      "stateMutability": "nonpayable",
      "type": "function"
    },
    {
      "constant": true,
      "inputs": [
        {
          "internalType": "address",
          "name": "airline",
          "type": "address"
        }
      ],
      "name": "isActive",
      "outputs": [
        {
          "internalType": "bool",
          "name": "",
          "type": "bool"
        }
      ],
      "payable": false,
      "stateMutability": "view",
      "type": "function"
    },
    {
      "constant": true,
      "inputs": [
        {
          "internalType": "address",
          "name": "airline",
          "type": "address"
        }
      ],
      "name": "isRegistered",
      "outputs": [
        {
          "internalType": "bool",
          "name": "",
          "type": "bool"
        }
      ],
      "payable": false,
      "stateMutability": "view",
      "type": "function"
    },
    {
      "constant": false,
      "inputs": [
        {
          "internalType": "address",
          "name": "airlineAddress",
          "type": "address"
        },
        {
          "internalType": "string",
          "name": "name",
          "type": "string"
        }
      ],
      "name": "registerAirline",
      "outputs": [
        {
          "internalType": "bool",
          "name": "",
          "type": "bool"
        }
      ],
      "payable": false,
      "stateMutability": "nonpayable",
      "type": "function"
    },
    {
      "constant": true,
      "inputs": [
        {
          "internalType": "address",
          "name": "airline",
          "type": "address"
        }
      ],
      "name": "getAirlineVotes",
      "outputs": [
        {
          "internalType": "uint256",
          "name": "votes",
          "type": "uint256"
        }
      ],
      "payable": false,
      "stateMutability": "view",
      "type": "function"
    },
    {
      "constant": false,
      "inputs": [
        {
          "internalType": "string",
          "name": "flightCode",
          "type": "string"
        }
      ],
      "name": "buy",
      "outputs": [
        {
          "internalType": "uint256",
          "name": "",
          "type": "uint256"
        },
        {
          "internalType": "address",
          "name": "",
          "type": "address"
        },
        {
          "internalType": "uint256",
          "name": "",
          "type": "uint256"
        }
      ],
      "payable": true,
      "stateMutability": "payable",
      "type": "function"
    },
    {
      "constant": false,
      "inputs": [
        {
          "internalType": "string",
          "name": "flightCode",
          "type": "string"
        }
      ],
      "name": "creditInsurees",
      "outputs": [],
      "payable": false,
      "stateMutability": "nonpayable",
      "type": "function"
    },
    {
      "constant": true,
      "inputs": [],
      "name": "getCreditToPay",
      "outputs": [
        {
          "internalType": "uint256",
          "name": "",
          "type": "uint256"
        }
      ],
      "payable": false,
      "stateMutability": "view",
      "type": "function"
    },
    {
      "constant": false,
      "inputs": [
        {
          "internalType": "address payable",
          "name": "insuredPassenger",
          "type": "address"
        }
      ],
      "name": "withdraw",
      "outputs": [
        {
          "internalType": "uint256",
          "name": "",
          "type": "uint256"
        },
        {
          "internalType": "uint256",
          "name": "",
          "type": "uint256"
        },
        {
          "internalType": "uint256",
          "name": "",
          "type": "uint256"
        },
        {
          "internalType": "uint256",
          "name": "",
          "type": "uint256"
        },
        {
          "internalType": "address",
          "name": "",
          "type": "address"
        },
        {
          "internalType": "address",
          "name": "",
          "type": "address"
        }
      ],
      "payable": false,
      "stateMutability": "nonpayable",
      "type": "function"
    },
    {
      "constant": false,
      "inputs": [],
      "name": "fund",
      "outputs": [],
      "payable": true,
      "stateMutability": "payable",
      "type": "function"
    },
    {
      "constant": true,
      "inputs": [
        {
          "internalType": "address",
          "name": "airline",
          "type": "address"
        }
      ],
      "name": "isAirline",
      "outputs": [
        {
          "internalType": "bool",
          "name": "",
          "type": "bool"
        }
      ],
      "payable": false,
      "stateMutability": "view",
      "type": "function"
    }
  ],
  "bytecode": "0x60806040526001600060146101000a81548160ff0219169083151502179055503480156200002c57600080fd5b50336000806101000a81548173ffffffffffffffffffffffffffffffffffffffff021916908373ffffffffffffffffffffffffffffffffffffffff160217905550600060058190555060018060003373ffffffffffffffffffffffffffffffffffffffff1673ffffffffffffffffffffffffffffffffffffffff168152602001908152602001600020819055506000604051908082528060200260200182016040528015620000ea5781602001602082028038833980820191505090505b5060049080519060200190620001029291906200026e565b506040518060a001604052803373ffffffffffffffffffffffffffffffffffffffff1681526020016001151581526020016040518060400160405280600881526020017f416972696e6469610000000000000000000000000000000000000000000000008152508152602001600081526020016000815250600260003373ffffffffffffffffffffffffffffffffffffffff1673ffffffffffffffffffffffffffffffffffffffff16815260200190815260200160002060008201518160000160006101000a81548173ffffffffffffffffffffffffffffffffffffffff021916908373ffffffffffffffffffffffffffffffffffffffff16021790555060208201518160000160146101000a81548160ff02191690831515021790555060408201518160010190805190602001906200023e929190620002fd565b506060820151816002015560808201518160030155905050600560008154809291906001019190505550620003f2565b828054828255906000526020600020908101928215620002ea579160200282015b82811115620002e95782518260006101000a81548173ffffffffffffffffffffffffffffffffffffffff021916908373ffffffffffffffffffffffffffffffffffffffff160217905550916020019190600101906200028f565b5b509050620002f9919062000384565b5090565b828054600181600116156101000203166002900490600052602060002090601f016020900481019282601f106200034057805160ff191683800117855562000371565b8280016001018555821562000371579182015b828111156200037057825182559160200191906001019062000353565b5b509050620003809190620003ca565b5090565b620003c791905b80821115620003c357600081816101000a81549073ffffffffffffffffffffffffffffffffffffffff0219169055506001016200038b565b5090565b90565b620003ef91905b80821115620003eb576000816000905550600101620003d1565b5090565b90565b61230b80620004026000396000f3fe6080604052600436106101145760003560e01c80636d47c815116100a0578063c3c5a54711610064578063c3c5a54714610667578063cd905dff146106d0578063e89f03fc146106ff578063ee38a7491461072a578063fe9fbb80146107e857610114565b80636d47c81514610539578063954a7df61461059e5780639c3ffb59146105c95780639f8a13d7146105f4578063b60d42881461065d57610114565b80633fcf1cf4116100e75780633fcf1cf414610240578063492cc769146102c657806351cff8d91461038d578063536c8e831461046d5780636873c21d146104e857610114565b80630e248a111461011e578063110466ed1461018757806320bf59c2146101c45780632c388d5d146101ef575b61011c610851565b005b34801561012a57600080fd5b5061016d6004803603602081101561014157600080fd5b81019080803573ffffffffffffffffffffffffffffffffffffffff169060200190929190505050610959565b604051808215151515815260200191505060405180910390f35b34801561019357600080fd5b506101c2600480360360208110156101aa57600080fd5b81019080803515159060200190929190505050610a04565b005b3480156101d057600080fd5b506101d9610ae3565b6040518082815260200191505060405180910390f35b3480156101fb57600080fd5b5061023e6004803603602081101561021257600080fd5b81019080803573ffffffffffffffffffffffffffffffffffffffff169060200190929190505050610aef565b005b34801561024c57600080fd5b506102c46004803603602081101561026357600080fd5b810190808035906020019064010000000081111561028057600080fd5b82018360208201111561029257600080fd5b803590602001918460018302840111640100000000831117156102b457600080fd5b9091929391929390505050610bf8565b005b61033d600480360360208110156102dc57600080fd5b81019080803590602001906401000000008111156102f957600080fd5b82018360208201111561030b57600080fd5b8035906020019184600183028401116401000000008311171561032d57600080fd5b9091929391929390505050610f85565b604051808481526020018373ffffffffffffffffffffffffffffffffffffffff1673ffffffffffffffffffffffffffffffffffffffff168152602001828152602001935050505060405180910390f35b34801561039957600080fd5b506103dc600480360360208110156103b057600080fd5b81019080803573ffffffffffffffffffffffffffffffffffffffff169060200190929190505050611407565b604051808781526020018681526020018581526020018481526020018373ffffffffffffffffffffffffffffffffffffffff1673ffffffffffffffffffffffffffffffffffffffff1681526020018273ffffffffffffffffffffffffffffffffffffffff1673ffffffffffffffffffffffffffffffffffffffff168152602001965050505050505060405180910390f35b34801561047957600080fd5b506104a66004803603602081101561049057600080fd5b810190808035906020019092919050505061174f565b604051808273ffffffffffffffffffffffffffffffffffffffff1673ffffffffffffffffffffffffffffffffffffffff16815260200191505060405180910390f35b3480156104f457600080fd5b506105376004803603602081101561050b57600080fd5b81019080803573ffffffffffffffffffffffffffffffffffffffff16906020019092919050505061178b565b005b34801561054557600080fd5b506105886004803603602081101561055c57600080fd5b81019080803573ffffffffffffffffffffffffffffffffffffffff169060200190929190505050611893565b6040518082815260200191505060405180910390f35b3480156105aa57600080fd5b506105b36118df565b6040518082815260200191505060405180910390f35b3480156105d557600080fd5b506105de6118e5565b6040518082815260200191505060405180910390f35b34801561060057600080fd5b506106436004803603602081101561061757600080fd5b81019080803573ffffffffffffffffffffffffffffffffffffffff16906020019092919050505061192f565b604051808215151515815260200191505060405180910390f35b610665610851565b005b34801561067357600080fd5b506106b66004803603602081101561068a57600080fd5b81019080803573ffffffffffffffffffffffffffffffffffffffff169060200190929190505050611986565b604051808215151515815260200191505060405180910390f35b3480156106dc57600080fd5b506106e56119df565b604051808215151515815260200191505060405180910390f35b34801561070b57600080fd5b506107146119f5565b6040518082815260200191505060405180910390f35b34801561073657600080fd5b506107ce6004803603604081101561074d57600080fd5b81019080803573ffffffffffffffffffffffffffffffffffffffff1690602001909291908035906020019064010000000081111561078a57600080fd5b82018360208201111561079c57600080fd5b803590602001918460018302840111640100000000831117156107be57600080fd5b9091929391929390505050611a01565b604051808215151515815260200191505060405180910390f35b3480156107f457600080fd5b506108376004803603602081101561080b57600080fd5b81019080803573ffffffffffffffffffffffffffffffffffffffff169060200190929190505050611e70565b604051808215151515815260200191505060405180910390f35b600060149054906101000a900460ff166108b6576040517f08c379a00000000000000000000000000000000000000000000000000000000081526004018080602001828103825260258152602001806121fe6025913960400191505060405180910390fd5b6000600260003373ffffffffffffffffffffffffffffffffffffffff1673ffffffffffffffffffffffffffffffffffffffff1681526020019081526020016000206002015490506109103482611ebb90919063ffffffff16565b600260003373ffffffffffffffffffffffffffffffffffffffff1673ffffffffffffffffffffffffffffffffffffffff1681526020019081526020016000206002018190555050565b60008173ffffffffffffffffffffffffffffffffffffffff16600260008473ffffffffffffffffffffffffffffffffffffffff1673ffffffffffffffffffffffffffffffffffffffff16815260200190815260200160002060000160009054906101000a900473ffffffffffffffffffffffffffffffffffffffff1673ffffffffffffffffffffffffffffffffffffffff1614156109fa57600190506109ff565b600090505b919050565b6000809054906101000a900473ffffffffffffffffffffffffffffffffffffffff1673ffffffffffffffffffffffffffffffffffffffff163373ffffffffffffffffffffffffffffffffffffffff1614610ac6576040517f08c379a000000000000000000000000000000000000000000000000000000000815260040180806020018281038252601c8152602001807f43616c6c6572206973206e6f7420636f6e7472616374206f776e65720000000081525060200191505060405180910390fd5b80600060146101000a81548160ff02191690831515021790555050565b670de0b6b3a764000081565b6000809054906101000a900473ffffffffffffffffffffffffffffffffffffffff1673ffffffffffffffffffffffffffffffffffffffff163373ffffffffffffffffffffffffffffffffffffffff1614610bb1576040517f08c379a000000000000000000000000000000000000000000000000000000000815260040180806020018281038252601c8152602001807f43616c6c6572206973206e6f7420636f6e7472616374206f776e65720000000081525060200191505060405180910390fd5b60018060008373ffffffffffffffffffffffffffffffffffffffff1673ffffffffffffffffffffffffffffffffffffffff1681526020019081526020016000208190555050565b600060149054906101000a900460ff16610c5d576040517f08c379a00000000000000000000000000000000000000000000000000000000081526004018080602001828103825260258152602001806121fe6025913960400191505060405180910390fd5b60008090505b600480549050811015610f805760006003600060048481548110610c8357fe5b9060005260206000200160009054906101000a900473ffffffffffffffffffffffffffffffffffffffff1673ffffffffffffffffffffffffffffffffffffffff1673ffffffffffffffffffffffffffffffffffffffff168152602001908152602001600020600101848460405180838380828437808301925050509250505090815260200160405180910390205414610f735760006003600060048481548110610d2957fe5b9060005260206000200160009054906101000a900473ffffffffffffffffffffffffffffffffffffffff1673ffffffffffffffffffffffffffffffffffffffff1673ffffffffffffffffffffffffffffffffffffffff16815260200190815260200160002060020154905060006003600060048581548110610da757fe5b9060005260206000200160009054906101000a900473ffffffffffffffffffffffffffffffffffffffff1673ffffffffffffffffffffffffffffffffffffffff1673ffffffffffffffffffffffffffffffffffffffff1681526020019081526020016000206001018585604051808383808284378083019250505092505050908152602001604051809103902054905060006003600060048681548110610e4a57fe5b9060005260206000200160009054906101000a900473ffffffffffffffffffffffffffffffffffffffff1673ffffffffffffffffffffffffffffffffffffffff1673ffffffffffffffffffffffffffffffffffffffff1681526020019081526020016000206001018686604051808383808284378083019250505092505050908152602001604051809103902081905550610eef600282611eda90919063ffffffff16565b818301016003600060048681548110610f0457fe5b9060005260206000200160009054906101000a900473ffffffffffffffffffffffffffffffffffffffff1673ffffffffffffffffffffffffffffffffffffffff1673ffffffffffffffffffffffffffffffffffffffff1681526020019081526020016000206002018190555050505b8080600101915050610c63565b505050565b60008060008060149054906101000a900460ff16610fee576040517f08c379a00000000000000000000000000000000000000000000000000000000081526004018080602001828103825260258152602001806121fe6025913960400191505060405180910390fd5b3273ffffffffffffffffffffffffffffffffffffffff163373ffffffffffffffffffffffffffffffffffffffff161461108f576040517f08c379a00000000000000000000000000000000000000000000000000000000081526004018080602001828103825260198152602001807f436f6e74726163747320617265206e6f7420616c6c6f7765640000000000000081525060200191505060405180910390fd5b600034116110e8576040517f08c379a000000000000000000000000000000000000000000000000000000000815260040180806020018281038252602d81526020018061225b602d913960400191505060405180910390fd5b6110f133611f00565b61115c5760043390806001815401808255809150509060018203906000526020600020016000909192909190916101000a81548173ffffffffffffffffffffffffffffffffffffffff021916908373ffffffffffffffffffffffffffffffffffffffff160217905550505b3373ffffffffffffffffffffffffffffffffffffffff16600360003373ffffffffffffffffffffffffffffffffffffffff1673ffffffffffffffffffffffffffffffffffffffff16815260200190815260200160002060000160009054906101000a900473ffffffffffffffffffffffffffffffffffffffff1673ffffffffffffffffffffffffffffffffffffffff16146113215760405180604001604052803373ffffffffffffffffffffffffffffffffffffffff1681526020016000815250600360003373ffffffffffffffffffffffffffffffffffffffff1673ffffffffffffffffffffffffffffffffffffffff16815260200190815260200160002060008201518160000160006101000a81548173ffffffffffffffffffffffffffffffffffffffff021916908373ffffffffffffffffffffffffffffffffffffffff1602179055506020820151816002015590505034600360003373ffffffffffffffffffffffffffffffffffffffff1673ffffffffffffffffffffffffffffffffffffffff168152602001908152602001600020600101868660405180838380828437808301925050509250505090815260200160405180910390208190555061138e565b34600360003373ffffffffffffffffffffffffffffffffffffffff1673ffffffffffffffffffffffffffffffffffffffff16815260200190815260200160002060010186866040518083838082843780830192505050925050509081526020016040518091039020819055505b670de0b6b3a7640000341115611400573373ffffffffffffffffffffffffffffffffffffffff166108fc6113d3670de0b6b3a764000034611fa290919063ffffffff16565b9081150290604051600060405180830381858888f193505050501580156113fe573d6000803e3d6000fd5b505b9250925092565b600080600080600080600060149054906101000a900460ff16611475576040517f08c379a00000000000000000000000000000000000000000000000000000000081526004018080602001828103825260258152602001806121fe6025913960400191505060405180910390fd5b3273ffffffffffffffffffffffffffffffffffffffff168773ffffffffffffffffffffffffffffffffffffffff1614611516576040517f08c379a00000000000000000000000000000000000000000000000000000000081526004018080602001828103825260158152602001807f436f6e747261637473206e6f7420616c6c6f776564000000000000000000000081525060200191505060405180910390fd5b6000600360008973ffffffffffffffffffffffffffffffffffffffff1673ffffffffffffffffffffffffffffffffffffffff16815260200190815260200160002060020154116115b1576040517f08c379a00000000000000000000000000000000000000000000000000000000081526004018080602001828103825260388152602001806122236038913960400191505060405180910390fd5b60004790506000600360008a73ffffffffffffffffffffffffffffffffffffffff1673ffffffffffffffffffffffffffffffffffffffff168152602001908152602001600020600201549050804711611655576040517f08c379a000000000000000000000000000000000000000000000000000000000815260040180806020018281038252602e8152602001806122a9602e913960400191505060405180910390fd5b6000600360008b73ffffffffffffffffffffffffffffffffffffffff1673ffffffffffffffffffffffffffffffffffffffff168152602001908152602001600020600201819055508873ffffffffffffffffffffffffffffffffffffffff166108fc829081150290604051600060405180830381858888f193505050501580156116e3573d6000803e3d6000fd5b506000600360008b73ffffffffffffffffffffffffffffffffffffffff1673ffffffffffffffffffffffffffffffffffffffff168152602001908152602001600020600201549050828247838d3081915080905098509850985098509850985050505091939550919395565b6004818154811061175c57fe5b906000526020600020016000915054906101000a900473ffffffffffffffffffffffffffffffffffffffff1681565b6000809054906101000a900473ffffffffffffffffffffffffffffffffffffffff1673ffffffffffffffffffffffffffffffffffffffff163373ffffffffffffffffffffffffffffffffffffffff161461184d576040517f08c379a000000000000000000000000000000000000000000000000000000000815260040180806020018281038252601c8152602001807f43616c6c6572206973206e6f7420636f6e7472616374206f776e65720000000081525060200191505060405180910390fd5b600160008273ffffffffffffffffffffffffffffffffffffffff1673ffffffffffffffffffffffffffffffffffffffff1681526020019081526020016000206000905550565b6000600260008373ffffffffffffffffffffffffffffffffffffffff1673ffffffffffffffffffffffffffffffffffffffff168152602001908152602001600020600301549050919050565b60055481565b6000600360003373ffffffffffffffffffffffffffffffffffffffff1673ffffffffffffffffffffffffffffffffffffffff16815260200190815260200160002060020154905090565b6000678ac7230489e80000600260008473ffffffffffffffffffffffffffffffffffffffff1673ffffffffffffffffffffffffffffffffffffffff1681526020019081526020016000206002015410159050919050565b6000600260008373ffffffffffffffffffffffffffffffffffffffff1673ffffffffffffffffffffffffffffffffffffffff16815260200190815260200160002060000160149054906101000a900460ff169050919050565b60008060149054906101000a900460ff16905090565b678ac7230489e8000081565b60008060149054906101000a900460ff16611a67576040517f08c379a00000000000000000000000000000000000000000000000000000000081526004018080602001828103825260258152602001806121fe6025913960400191505060405180910390fd5b60018060003373ffffffffffffffffffffffffffffffffffffffff1673ffffffffffffffffffffffffffffffffffffffff1681526020019081526020016000205414611b1b576040517f08c379a000000000000000000000000000000000000000000000000000000000815260040180806020018281038252601b8152602001807f43616c6c6572206973206e6f7420616e20617574686f72697a6564000000000081525060200191505060405180910390fd5b600073ffffffffffffffffffffffffffffffffffffffff168473ffffffffffffffffffffffffffffffffffffffff161415611ba1576040517f08c379a00000000000000000000000000000000000000000000000000000000081526004018080602001828103825260218152602001806122886021913960400191505060405180910390fd5b600260008573ffffffffffffffffffffffffffffffffffffffff1673ffffffffffffffffffffffffffffffffffffffff16815260200190815260200160002060000160149054906101000a900460ff1615611c64576040517f08c379a00000000000000000000000000000000000000000000000000000000081526004018080602001828103825260168152602001807f4169726c696e6520697320726567697374657265642e0000000000000000000081525060200191505060405180910390fd5b600460ff166005541015611de9576040518060a001604052808573ffffffffffffffffffffffffffffffffffffffff16815260200160011515815260200184848080601f016020809104026020016040519081016040528093929190818152602001838380828437600081840152601f19601f820116905080830192505050505050508152602001600081526020016001815250600260008673ffffffffffffffffffffffffffffffffffffffff1673ffffffffffffffffffffffffffffffffffffffff16815260200190815260200160002060008201518160000160006101000a81548173ffffffffffffffffffffffffffffffffffffffff021916908373ffffffffffffffffffffffffffffffffffffffff16021790555060208201518160000160146101000a81548160ff0219169083151502179055506040820151816001019080519060200190611dba929190612158565b506060820151816002015560808201518160030155905050600560008154809291906001019190505550611e65565b611df284611fc2565b611e64576040517f08c379a00000000000000000000000000000000000000000000000000000000081526004018080602001828103825260138152602001807f416e20455252207768696c6520766f74696e670000000000000000000000000081525060200191505060405180910390fd5b5b600190509392505050565b600060018060008473ffffffffffffffffffffffffffffffffffffffff1673ffffffffffffffffffffffffffffffffffffffff16815260200190815260200160002054149050919050565b600080828401905083811015611ed057600080fd5b8091505092915050565b6000808211611ee857600080fd5b6000828481611ef357fe5b0490508091505092915050565b600080905060008090505b600480549050811015611f99578273ffffffffffffffffffffffffffffffffffffffff1660048281548110611f3c57fe5b9060005260206000200160009054906101000a900473ffffffffffffffffffffffffffffffffffffffff1673ffffffffffffffffffffffffffffffffffffffff161415611f8c5760019150611f99565b8080600101915050611f0b565b50809050919050565b600082821115611fb157600080fd5b600082840390508091505092915050565b60008060149054906101000a900460ff16612028576040517f08c379a00000000000000000000000000000000000000000000000000000000081526004018080602001828103825260258152602001806121fe6025913960400191505060405180910390fd5b6000809050600260008473ffffffffffffffffffffffffffffffffffffffff1673ffffffffffffffffffffffffffffffffffffffff168152602001908152602001600020600301600081548092919060010191905055506120956002600554611eda90919063ffffffff16565b600260008573ffffffffffffffffffffffffffffffffffffffff1673ffffffffffffffffffffffffffffffffffffffff168152602001908152602001600020600301541061214b576001600260008573ffffffffffffffffffffffffffffffffffffffff1673ffffffffffffffffffffffffffffffffffffffff16815260200190815260200160002060000160146101000a81548160ff0219169083151502179055506005600081548092919060010191905055505b6001905080915050919050565b828054600181600116156101000203166002900490600052602060002090601f016020900481019282601f1061219957805160ff19168380011785556121c7565b828001600101855582156121c7579182015b828111156121c65782518255916020019190600101906121ab565b5b5090506121d491906121d8565b5090565b6121fa91905b808211156121f65760008160009055506001016121de565b5090565b9056fe436f6e74726163742069732063757272656e746c79206e6f74206f7065726174696f6e616c54686520636f6d70616e79206469646e27742066756e64207769746820656e6f756768206d6f6e657920666f72207769746864726177616c596f75206e65656420746f2070617920666f7220627579696e67206120666c6967687420696e737572616e6365276169726c696e654164647265737327206d75737420626520612076616c69642e54686520636f6e747261637420646f6573206e6f74206861766520656e6f7567682066756e647320746f20706179a265627a7a7231582044d0996ea6640b2ab16ea124056d3f736f217ae8f87515d06274e4431feb482264736f6c63430005110032",
  "source": "pragma solidity >=0.4.25;\n\nimport \"../node_modules/openzeppelin-solidity/contracts/math/SafeMath.sol\";\n\ncontract FlightSuretyData {\n    using SafeMath for uint256;\n\n    /********************************************************************************************/\n    /*                                       DATA VARIABLES                                     */\n    /********************************************************************************************/\n\n    address private contractOwner;                                      // Account used to deploy contract\n    bool private operational = true;                                    // Blocks all state changes throughout the contract if false\n    \n    mapping(address => uint256) private authorizedContracts;\n\n    // airlines information data variables\n    struct Airline {\n        address airlineWallet;\n        bool isRegistered;\n        string name;\n        uint256 funded;\n        uint256 votes;\n    }\n    mapping(address => Airline) private airlines;\n\n    // passengers info\n    struct Passenger {\n        address passengerWallet;\n        mapping(string => uint256) boughtFlight;\n        uint256 credit;\n    }\n    mapping(address => Passenger) private passengers;\n    address[] public passengerAddresses;\n\n    uint256 public constant insurance_limit = 1 ether;\n    uint256 public constant min_funds = 10 ether;\n\n    //multiparty variables- airlines\n    uint8 private constant multiparty_min_air = 4;\n    uint256 public airlinesCount;\n\n    /********************************************************************************************/\n    /*                                       EVENT DEFINITIONS                                  */\n    /********************************************************************************************/\n\n    /**\n    * @dev Constructor\n    *      The deploying account becomes contractOwner\n    */\n    constructor\n                                (\n                                )\n                                public\n    {\n        contractOwner = msg.sender;\n        airlinesCount = 0;\n        authorizedContracts[msg.sender] = 1;\n        passengerAddresses = new address[](0);\n\n        // \tFirst airline is registered when contract is deployed.\n        airlines[msg.sender] = Airline({\n                                            airlineWallet: msg.sender,\n                                            isRegistered: true,\n                                            name: \"Airindia\",\n                                            funded: 0,\n                                            // votes: new address[](0)\n                                            votes: 0\n                                    });\n        airlinesCount++;\n    }\n\n    /********************************************************************************************/\n    /*                                       FUNCTION MODIFIERS                                 */\n    /********************************************************************************************/\n\n    // Modifiers help avoid duplication of code. They are typically used to validate something\n    // before a function is allowed to be executed.\n\n    /**\n    * @dev Modifier that requires the \"operational\" boolean variable to be \"true\"\n    *      This is used on all state changing functions to pause the contract in\n    *      the event there is an issue that needs to be fixed\n    */\n    modifier requireIsOperational()\n    {\n        require(operational, \"Contract is currently not operational\");\n        _;  // All modifiers require an \"_\" which indicates where the function body will be added\n    }\n\n    /**\n    * @dev Modifier that requires the \"ContractOwner\" account to be the function caller\n    */\n    modifier requireContractOwner()\n    {\n        require(msg.sender == contractOwner, \"Caller is not contract owner\");\n        _;\n    }\n\n    /**\n    * @dev Modifier that requires the calling App contract has been authorized\n    */\n    modifier requireIsCallerAuthorized()\n    {\n        require(authorizedContracts[msg.sender] == 1, \"Caller is not an authorized\");\n        _;\n    }\n\n    /********************************************************************************************/\n    /*                                       UTILITY FUNCTIONS                                  */\n    /********************************************************************************************/\n\n    /**\n    * @dev Get operating status of contract\n    *\n    * @return A bool that is the current operating status\n    */\n    function isOperational()\n                            public\n                            view\n                            returns(bool)\n    {\n        return operational;\n    }\n\n    function authorizeCaller\n                            (\n                                address contractAddress\n                            )\n                            external\n                            requireContractOwner\n    {\n        authorizedContracts[contractAddress] = 1;\n    }\n\n     function isAuthorized\n                            (\n                                address contractAddress\n                            )\n                            external\n                            view\n                            returns(bool)\n    {\n        return(authorizedContracts[contractAddress] == 1);\n    }\n\n    function deauthorizeCaller\n                            (\n                                address contractAddress\n                            )\n                            external\n                            requireContractOwner\n    {\n        delete authorizedContracts[contractAddress];\n    }\n\n    /**\n    * @dev Sets contract operations on/off\n    *\n    * When operational mode is disabled, all write transactions except for this one will fail\n    */\n    function setOperatingStatus\n                            (\n                                bool mode\n                            )\n                            external\n                            requireContractOwner\n    {\n        operational = mode;\n    }\n\n    /********************************************************************************************/\n    /*                                     SMART CONTRACT FUNCTIONS                             */\n    /********************************************************************************************/\n\n    function isActive ( address airline) public view returns(bool) {\n        return(airlines[airline].funded >= min_funds);\n    }\n\n    function isRegistered ( address airline) public view returns(bool) {\n        return(airlines[airline].isRegistered);\n    }\n\n   /**\n    * @dev Add an airline to the registration queue\n    *      Can only be called from FlightSuretyApp contract\n    *\n    */\n    function registerAirline\n                            (\n                                address airlineAddress,\n                                string calldata name\n                            )\n                            external\n                            requireIsOperational\n                            requireIsCallerAuthorized\n                            returns (bool)\n    {\n        require(airlineAddress != address(0), \"'airlineAddress' must be a valid.\");\n        require(!airlines[airlineAddress].isRegistered, \"Airline is registered.\");\n\n        if(airlinesCount < multiparty_min_air){\n            airlines[airlineAddress] = Airline({\n                                                airlineWallet: airlineAddress,\n                                                isRegistered: true,\n                                                name: name,\n                                                funded: 0,\n                                                votes: 1\n                                        });\n            airlinesCount++;\n        } else {\n            require(vote(airlineAddress), \"An ERR while voting\");\n        }\n        return (true);\n    }\n\n    function vote (address voted) internal requireIsOperational returns(bool) {\n        bool votingOK = false;\n        airlines[voted].votes++;\n        if (airlines[voted].votes >= airlinesCount.div(2)) {\n            airlines[voted].isRegistered = true;\n            airlinesCount++;\n        }\n        votingOK = true;\n        return votingOK;\n    }\n\n    function getAirlineVotes(address airline) public view returns (uint256 votes) {\n        return (airlines[airline].votes);\n    }\n\n   /**\n    * @dev Buy insurance for a flight\n    *\n    */\n    function buy\n                            (\n                                string calldata flightCode\n                            )\n                            external\n                            payable\n                            requireIsOperational\n                            returns (uint256, address, uint256)\n    {\n        require(msg.sender == tx.origin, \"Contracts are not allowed\");\n        require(msg.value > 0, 'You need to pay for buying a flight insurance');\n\n        if(!checkIfContains(msg.sender)){\n            passengerAddresses.push(msg.sender);\n        }\n        if (passengers[msg.sender].passengerWallet != msg.sender) {\n            passengers[msg.sender] = Passenger({\n                                                passengerWallet: msg.sender,\n                                                credit: 0\n                                        });\n            passengers[msg.sender].boughtFlight[flightCode] = msg.value;\n        } else {\n            passengers[msg.sender].boughtFlight[flightCode] = msg.value;\n        }\n        if (msg.value > insurance_limit) {\n            msg.sender.transfer(msg.value.sub(insurance_limit));\n        }\n    }\n\n    function checkIfContains(address passenger) internal view returns(bool inList){\n        inList = false;\n        for (uint256 c = 0; c < passengerAddresses.length; c++) {\n            if (passengerAddresses[c] == passenger) {\n                inList = true;\n                break;\n            }\n        }\n        return inList;\n    }\n\n    /**\n     *  @dev Credits payouts to insurees\n    */\n    function creditInsurees\n                                (\n                                    string calldata flightCode\n                                )\n                                external\n                                requireIsOperational\n    {\n        for (uint256 c = 0; c < passengerAddresses.length; c++) {\n            if(passengers[passengerAddresses[c]].boughtFlight[flightCode] != 0) {\n                uint256 savedCredit = passengers[passengerAddresses[c]].credit;\n                uint256 payedPrice = passengers[passengerAddresses[c]].boughtFlight[flightCode];\n                passengers[passengerAddresses[c]].boughtFlight[flightCode] = 0;\n                passengers[passengerAddresses[c]].credit = savedCredit + payedPrice + payedPrice.div(2);\n            }\n        }\n    }\n\n    function getCreditToPay() external view returns (uint256) {\n        return passengers[msg.sender].credit;\n    }\n    /**\n     *  @dev Transfers eligible payout funds to insuree\n     *\n    */\n    function withdraw\n                            (\n                                address payable insuredPassenger\n                            )\n                            public\n                            requireIsOperational\n                            returns (uint256, uint256, uint256, uint256, address, address)\n    {\n        require(insuredPassenger == tx.origin, \"Contracts not allowed\");\n        require(passengers[insuredPassenger].credit > 0, \"The company didn't fund with enough money for withdrawal\");\n        uint256 initialBalance = address(this).balance;\n        uint256 credit = passengers[insuredPassenger].credit;\n        require(address(this).balance > credit, \"The contract does not have enough funds to pay\");\n        passengers[insuredPassenger].credit = 0;\n        insuredPassenger.transfer(credit);\n        uint256 finalCredit = passengers[insuredPassenger].credit;\n        return (initialBalance, credit, address(this).balance, finalCredit, insuredPassenger, address(this));\n    }\n\n   /**\n    * @dev Initial funding for the insurance. Unless there are too many delayed flights\n    *      resulting in insurance payouts, the contract should be self-sustaining\n    *\n    */\n    function fund\n                            (\n                            )\n                            public\n                            payable\n                            requireIsOperational\n    {\n        uint256 currentFunds = airlines[msg.sender].funded;\n        airlines[msg.sender].funded = currentFunds.add(msg.value);\n    }\n\n    function isAirline (\n                            address airline\n                        )\n                        external\n                        view\n                        returns (bool) {\n        if (airlines[airline].airlineWallet == airline) {\n            return true;\n        } else {\n            return false;\n        }\n    }\n\n    function getFlightKey\n                        (\n                            address airline,\n                            string memory flight,\n                            uint256 timestamp\n                        )\n                        internal\n                        pure\n                        returns(bytes32)\n    {\n        return keccak256(abi.encodePacked(airline, flight, timestamp));\n    }\n\n    /**\n    * @dev Fallback function for funding smart contract.\n    *\n    */\n    function()\n                            external\n                            payable\n    {\n        fund();\n    }\n\n\n}\n\n",
  "sourcePath": "C:/Personal/udacity/FlightSurety-master_benat/contracts/FlightSuretyData.sol",
  "compiler": {
    "name": "solc",
    "version": "0.5.17+commit.d19bba13.Emscripten.clang"
  },
  "schemaVersion": "3.3.2",
  "updatedAt": "2020-12-16T15:00:23.986Z",
  "networkType": "ethereum",
  "devdoc": {
    "methods": {
      "buy(string)": {
        "details": "Buy insurance for a flight    "
      },
      "constructor": {
        "details": "Constructor     The deploying account becomes contractOwner"
      },
      "creditInsurees(string)": {
        "details": "Credits payouts to insurees"
      },
      "fund()": {
        "details": "Initial funding for the insurance. Unless there are too many delayed flights     resulting in insurance payouts, the contract should be self-sustaining    "
      },
      "isOperational()": {
        "details": "Get operating status of contract",
        "return": "A bool that is the current operating status"
      },
      "registerAirline(address,string)": {
        "details": "Add an airline to the registration queue     Can only be called from FlightSuretyApp contract    "
      },
      "setOperatingStatus(bool)": {
        "details": "Sets contract operations on/off    * When operational mode is disabled, all write transactions except for this one will fail"
      },
      "withdraw(address)": {
        "details": "Transfers eligible payout funds to insuree    "
      }
    }
  },
  "userdoc": {
    "methods": {
      "isActive(address)": {
        "notice": "*****************************************************************************************"
      }
    }
  }
}